{"abi":[{"type":"function","name":"allowance","inputs":[{"name":"owner","type":"address","internalType":"address"},{"name":"spender","type":"address","internalType":"address"}],"outputs":[{"name":"","type":"uint256","internalType":"uint256"}],"stateMutability":"view"},{"type":"function","name":"approve","inputs":[{"name":"spender","type":"address","internalType":"address"},{"name":"amount","type":"uint256","internalType":"uint256"}],"outputs":[{"name":"","type":"bool","internalType":"bool"}],"stateMutability":"nonpayable"},{"type":"function","name":"balanceOf","inputs":[{"name":"account","type":"address","internalType":"address"}],"outputs":[{"name":"","type":"uint256","internalType":"uint256"}],"stateMutability":"view"},{"type":"function","name":"decimals","inputs":[],"outputs":[{"name":"","type":"uint8","internalType":"uint8"}],"stateMutability":"view"},{"type":"function","name":"decreaseAllowance","inputs":[{"name":"spender","type":"address","internalType":"address"},{"name":"subtractedValue","type":"uint256","internalType":"uint256"}],"outputs":[{"name":"","type":"bool","internalType":"bool"}],"stateMutability":"nonpayable"},{"type":"function","name":"increaseAllowance","inputs":[{"name":"spender","type":"address","internalType":"address"},{"name":"addedValue","type":"uint256","internalType":"uint256"}],"outputs":[{"name":"","type":"bool","internalType":"bool"}],"stateMutability":"nonpayable"},{"type":"function","name":"initialize","inputs":[{"name":"name","type":"string","internalType":"string"},{"name":"symbol","type":"string","internalType":"string"},{"name":"decimals","type":"uint8","internalType":"uint8"},{"name":"totalSupply","type":"uint256","internalType":"uint256"}],"outputs":[],"stateMutability":"nonpayable"},{"type":"function","name":"name","inputs":[],"outputs":[{"name":"","type":"string","internalType":"string"}],"stateMutability":"view"},{"type":"function","name":"symbol","inputs":[],"outputs":[{"name":"","type":"string","internalType":"string"}],"stateMutability":"view"},{"type":"function","name":"totalSupply","inputs":[],"outputs":[{"name":"","type":"uint256","internalType":"uint256"}],"stateMutability":"view"},{"type":"function","name":"transfer","inputs":[{"name":"recipient","type":"address","internalType":"address"},{"name":"amount","type":"uint256","internalType":"uint256"}],"outputs":[{"name":"","type":"bool","internalType":"bool"}],"stateMutability":"nonpayable"},{"type":"function","name":"transferFrom","inputs":[{"name":"sender","type":"address","internalType":"address"},{"name":"recipient","type":"address","internalType":"address"},{"name":"amount","type":"uint256","internalType":"uint256"}],"outputs":[{"name":"","type":"bool","internalType":"bool"}],"stateMutability":"nonpayable"},{"type":"event","name":"Approval","inputs":[{"name":"owner","type":"address","indexed":true,"internalType":"address"},{"name":"spender","type":"address","indexed":true,"internalType":"address"},{"name":"value","type":"uint256","indexed":false,"internalType":"uint256"}],"anonymous":false},{"type":"event","name":"Transfer","inputs":[{"name":"from","type":"address","indexed":true,"internalType":"address"},{"name":"to","type":"address","indexed":true,"internalType":"address"},{"name":"value","type":"uint256","indexed":false,"internalType":"uint256"}],"anonymous":false}],"bytecode":{"object":"0x6080604052348015600e575f5ffd5b506119388061001c5f395ff3fe608060405234801561000f575f5ffd5b50600436106100b2575f3560e01c8063395093511161006f578063395093511461018c57806370a08231146101bc57806395d89b41146101ec578063a457c2d71461020a578063a9059cbb1461023a578063dd62ed3e1461026a576100b2565b806306fdde03146100b6578063095ea7b3146100d457806318160ddd1461010457806323b872dd14610122578063253279ad14610152578063313ce5671461016e575b5f5ffd5b6100be61029a565b6040516100cb9190610e3f565b60405180910390f35b6100ee60048036038101906100e99190610efd565b61032a565b6040516100fb9190610f55565b60405180910390f35b61010c610340565b6040516101199190610f7d565b60405180910390f35b61013c60048036038101906101379190610f96565b610349565b6040516101499190610f55565b60405180910390f35b61016c60048036038101906101679190611148565b6103f5565b005b610176610520565b60405161018391906111f3565b60405180910390f35b6101a660048036038101906101a19190610efd565b610535565b6040516101b39190610f55565b60405180910390f35b6101d660048036038101906101d1919061120c565b6105d5565b6040516101e39190610f7d565b60405180910390f35b6101f461061b565b6040516102019190610e3f565b60405180910390f35b610224600480360381019061021f9190610efd565b6106ab565b6040516102319190610f55565b60405180910390f35b610254600480360381019061024f9190610efd565b61074b565b6040516102619190610f55565b60405180910390f35b610284600480360381019061027f9190611237565b610761565b6040516102919190610f7d565b60405180910390f35b6060600480546102a9906112a2565b80601f01602080910402602001604051908101604052809291908181526020018280546102d5906112a2565b80156103205780601f106102f757610100808354040283529160200191610320565b820191905f5260205f20905b81548152906001019060200180831161030357829003601f168201915b5050505050905090565b5f6103363384846107e3565b6001905092915050565b5f600354905090565b5f6103558484846109a6565b6103ea84336103e58560025f8a73ffffffffffffffffffffffffffffffffffffffff1673ffffffffffffffffffffffffffffffffffffffff1681526020019081526020015f205f3373ffffffffffffffffffffffffffffffffffffffff1673ffffffffffffffffffffffffffffffffffffffff1681526020019081526020015f2054610c0e90919063ffffffff16565b6107e3565b600190509392505050565b5f60019054906101000a900460ff16806104135750610412610c23565b5b8061042957505f5f9054906101000a900460ff16155b610468576040517f08c379a000000000000000000000000000000000000000000000000000000000815260040161045f90611342565b60405180910390fd5b5f5f60019054906101000a900460ff1615905080156104b55760015f60016101000a81548160ff02191690831515021790555060015f5f6101000a81548160ff0219169083151502179055505b84600490816104c49190611500565b5083600590816104d49190611500565b508260065f6101000a81548160ff021916908360ff1602179055506104f93383610c37565b8015610519575f5f60016101000a81548160ff0219169083151502179055505b5050505050565b5f60065f9054906101000a900460ff16905090565b5f6105cb33846105c68560025f3373ffffffffffffffffffffffffffffffffffffffff1673ffffffffffffffffffffffffffffffffffffffff1681526020019081526020015f205f8973ffffffffffffffffffffffffffffffffffffffff1673ffffffffffffffffffffffffffffffffffffffff1681526020019081526020015f2054610dba90919063ffffffff16565b6107e3565b6001905092915050565b5f60015f8373ffffffffffffffffffffffffffffffffffffffff1673ffffffffffffffffffffffffffffffffffffffff1681526020019081526020015f20549050919050565b60606005805461062a906112a2565b80601f0160208091040260200160405190810160405280929190818152602001828054610656906112a2565b80156106a15780601f10610678576101008083540402835291602001916106a1565b820191905f5260205f20905b81548152906001019060200180831161068457829003601f168201915b5050505050905090565b5f610741338461073c8560025f3373ffffffffffffffffffffffffffffffffffffffff1673ffffffffffffffffffffffffffffffffffffffff1681526020019081526020015f205f8973ffffffffffffffffffffffffffffffffffffffff1673ffffffffffffffffffffffffffffffffffffffff1681526020019081526020015f2054610c0e90919063ffffffff16565b6107e3565b6001905092915050565b5f6107573384846109a6565b6001905092915050565b5f60025f8473ffffffffffffffffffffffffffffffffffffffff1673ffffffffffffffffffffffffffffffffffffffff1681526020019081526020015f205f8373ffffffffffffffffffffffffffffffffffffffff1673ffffffffffffffffffffffffffffffffffffffff1681526020019081526020015f2054905092915050565b5f73ffffffffffffffffffffffffffffffffffffffff168373ffffffffffffffffffffffffffffffffffffffff1603610851576040517f08c379a00000000000000000000000000000000000000000000000000000000081526004016108489061163f565b60405180910390fd5b5f73ffffffffffffffffffffffffffffffffffffffff168273ffffffffffffffffffffffffffffffffffffffff16036108bf576040517f08c379a00000000000000000000000000000000000000000000000000000000081526004016108b6906116cd565b60405180910390fd5b8060025f8573ffffffffffffffffffffffffffffffffffffffff1673ffffffffffffffffffffffffffffffffffffffff1681526020019081526020015f205f8473ffffffffffffffffffffffffffffffffffffffff1673ffffffffffffffffffffffffffffffffffffffff1681526020019081526020015f20819055508173ffffffffffffffffffffffffffffffffffffffff168373ffffffffffffffffffffffffffffffffffffffff167f8c5be1e5ebec7d5bd14f71427d1e84f3dd0314c0f7b2291e5b200ac8c7c3b925836040516109999190610f7d565b60405180910390a3505050565b5f73ffffffffffffffffffffffffffffffffffffffff168373ffffffffffffffffffffffffffffffffffffffff1603610a14576040517f08c379a0000000000000000000000000000000000000000000000000000000008152600401610a0b9061175b565b60405180910390fd5b5f73ffffffffffffffffffffffffffffffffffffffff168273ffffffffffffffffffffffffffffffffffffffff1603610a82576040517f08c379a0000000000000000000000000000000000000000000000000000000008152600401610a79906117e9565b60405180910390fd5b610ad28160015f8673ffffffffffffffffffffffffffffffffffffffff1673ffffffffffffffffffffffffffffffffffffffff1681526020019081526020015f2054610c0e90919063ffffffff16565b60015f8573ffffffffffffffffffffffffffffffffffffffff1673ffffffffffffffffffffffffffffffffffffffff1681526020019081526020015f2081905550610b638160015f8573ffffffffffffffffffffffffffffffffffffffff1673ffffffffffffffffffffffffffffffffffffffff1681526020019081526020015f2054610dba90919063ffffffff16565b60015f8473ffffffffffffffffffffffffffffffffffffffff1673ffffffffffffffffffffffffffffffffffffffff1681526020019081526020015f20819055508173ffffffffffffffffffffffffffffffffffffffff168373ffffffffffffffffffffffffffffffffffffffff167fddf252ad1be2c89b69c2b068fc378daa952ba7f163c4a11628f55a4df523b3ef83604051610c019190610f7d565b60405180910390a3505050565b5f8183610c1b9190611834565b905092915050565b5f5f3090505f813b90505f81149250505090565b5f73ffffffffffffffffffffffffffffffffffffffff168273ffffffffffffffffffffffffffffffffffffffff1603610ca5576040517f08c379a0000000000000000000000000000000000000000000000000000000008152600401610c9c906118b1565b60405180910390fd5b610cba81600354610dba90919063ffffffff16565b600381905550610d108160015f8573ffffffffffffffffffffffffffffffffffffffff1673ffffffffffffffffffffffffffffffffffffffff1681526020019081526020015f2054610dba90919063ffffffff16565b60015f8473ffffffffffffffffffffffffffffffffffffffff1673ffffffffffffffffffffffffffffffffffffffff1681526020019081526020015f20819055508173ffffffffffffffffffffffffffffffffffffffff165f73ffffffffffffffffffffffffffffffffffffffff167fddf252ad1be2c89b69c2b068fc378daa952ba7f163c4a11628f55a4df523b3ef83604051610dae9190610f7d565b60405180910390a35050565b5f8183610dc791906118cf565b905092915050565b5f81519050919050565b5f82825260208201905092915050565b8281835e5f83830152505050565b5f601f19601f8301169050919050565b5f610e1182610dcf565b610e1b8185610dd9565b9350610e2b818560208601610de9565b610e3481610df7565b840191505092915050565b5f6020820190508181035f830152610e578184610e07565b905092915050565b5f604051905090565b5f5ffd5b5f5ffd5b5f73ffffffffffffffffffffffffffffffffffffffff82169050919050565b5f610e9982610e70565b9050919050565b610ea981610e8f565b8114610eb3575f5ffd5b50565b5f81359050610ec481610ea0565b92915050565b5f819050919050565b610edc81610eca565b8114610ee6575f5ffd5b50565b5f81359050610ef781610ed3565b92915050565b5f5f60408385031215610f1357610f12610e68565b5b5f610f2085828601610eb6565b9250506020610f3185828601610ee9565b9150509250929050565b5f8115159050919050565b610f4f81610f3b565b82525050565b5f602082019050610f685f830184610f46565b92915050565b610f7781610eca565b82525050565b5f602082019050610f905f830184610f6e565b92915050565b5f5f5f60608486031215610fad57610fac610e68565b5b5f610fba86828701610eb6565b9350506020610fcb86828701610eb6565b9250506040610fdc86828701610ee9565b9150509250925092565b5f5ffd5b5f5ffd5b7f4e487b71000000000000000000000000000000000000000000000000000000005f52604160045260245ffd5b61102482610df7565b810181811067ffffffffffffffff8211171561104357611042610fee565b5b80604052505050565b5f611055610e5f565b9050611061828261101b565b919050565b5f67ffffffffffffffff8211156110805761107f610fee565b5b61108982610df7565b9050602081019050919050565b828183375f83830152505050565b5f6110b66110b184611066565b61104c565b9050828152602081018484840111156110d2576110d1610fea565b5b6110dd848285611096565b509392505050565b5f82601f8301126110f9576110f8610fe6565b5b81356111098482602086016110a4565b91505092915050565b5f60ff82169050919050565b61112781611112565b8114611131575f5ffd5b50565b5f813590506111428161111e565b92915050565b5f5f5f5f608085870312156111605761115f610e68565b5b5f85013567ffffffffffffffff81111561117d5761117c610e6c565b5b611189878288016110e5565b945050602085013567ffffffffffffffff8111156111aa576111a9610e6c565b5b6111b6878288016110e5565b93505060406111c787828801611134565b92505060606111d887828801610ee9565b91505092959194509250565b6111ed81611112565b82525050565b5f6020820190506112065f8301846111e4565b92915050565b5f6020828403121561122157611220610e68565b5b5f61122e84828501610eb6565b91505092915050565b5f5f6040838503121561124d5761124c610e68565b5b5f61125a85828601610eb6565b925050602061126b85828601610eb6565b9150509250929050565b7f4e487b71000000000000000000000000000000000000000000000000000000005f52602260045260245ffd5b5f60028204905060018216806112b957607f821691505b6020821081036112cc576112cb611275565b5b50919050565b7f436f6e747261637420696e7374616e63652068617320616c72656164792062655f8201527f656e20696e697469616c697a6564000000000000000000000000000000000000602082015250565b5f61132c602e83610dd9565b9150611337826112d2565b604082019050919050565b5f6020820190508181035f83015261135981611320565b9050919050565b5f819050815f5260205f209050919050565b5f6020601f8301049050919050565b5f82821b905092915050565b5f600883026113bc7fffffffffffffffffffffffffffffffffffffffffffffffffffffffffffffffff82611381565b6113c68683611381565b95508019841693508086168417925050509392505050565b5f819050919050565b5f6114016113fc6113f784610eca565b6113de565b610eca565b9050919050565b5f819050919050565b61141a836113e7565b61142e61142682611408565b84845461138d565b825550505050565b5f5f905090565b611445611436565b611450818484611411565b505050565b5b81811015611473576114685f8261143d565b600181019050611456565b5050565b601f8211156114b85761148981611360565b61149284611372565b810160208510156114a1578190505b6114b56114ad85611372565b830182611455565b50505b505050565b5f82821c905092915050565b5f6114d85f19846008026114bd565b1980831691505092915050565b5f6114f083836114c9565b9150826002028217905092915050565b61150982610dcf565b67ffffffffffffffff81111561152257611521610fee565b5b61152c82546112a2565b611537828285611477565b5f60209050601f831160018114611568575f8415611556578287015190505b61156085826114e5565b8655506115c7565b601f19841661157686611360565b5f5b8281101561159d57848901518255600182019150602085019450602081019050611578565b868310156115ba57848901516115b6601f8916826114c9565b8355505b6001600288020188555050505b505050505050565b7f45524332303a20617070726f76652066726f6d20746865207a65726f206164645f8201527f7265737300000000000000000000000000000000000000000000000000000000602082015250565b5f611629602483610dd9565b9150611634826115cf565b604082019050919050565b5f6020820190508181035f8301526116568161161d565b9050919050565b7f45524332303a20617070726f766520746f20746865207a65726f2061646472655f8201527f7373000000000000000000000000000000000000000000000000000000000000602082015250565b5f6116b7602283610dd9565b91506116c28261165d565b604082019050919050565b5f6020820190508181035f8301526116e4816116ab565b9050919050565b7f45524332303a207472616e736665722066726f6d20746865207a65726f2061645f8201527f6472657373000000000000000000000000000000000000000000000000000000602082015250565b5f611745602583610dd9565b9150611750826116eb565b604082019050919050565b5f6020820190508181035f83015261177281611739565b9050919050565b7f45524332303a207472616e7366657220746f20746865207a65726f20616464725f8201527f6573730000000000000000000000000000000000000000000000000000000000602082015250565b5f6117d3602383610dd9565b91506117de82611779565b604082019050919050565b5f6020820190508181035f830152611800816117c7565b9050919050565b7f4e487b71000000000000000000000000000000000000000000000000000000005f52601160045260245ffd5b5f61183e82610eca565b915061184983610eca565b925082820390508181111561186157611860611807565b5b92915050565b7f45524332303a206d696e7420746f20746865207a65726f2061646472657373005f82015250565b5f61189b601f83610dd9565b91506118a682611867565b602082019050919050565b5f6020820190508181035f8301526118c88161188f565b9050919050565b5f6118d982610eca565b91506118e483610eca565b92508282019050808211156118fc576118fb611807565b5b9291505056fea2646970667358221220a60da0a5259c312f3559198bdcbf220f245739c5b803c63ac1a19fe9f43b7a4964736f6c634300081e0033","linkReferences":{}},"methodIdentifiers":{"allowance(address,address)":"dd62ed3e","approve(address,uint256)":"095ea7b3","balanceOf(address)":"70a08231","decimals()":"313ce567","decreaseAllowance(address,uint256)":"a457c2d7","increaseAllowance(address,uint256)":"39509351","initialize(string,string,uint8,uint256)":"253279ad","name()":"06fdde03","symbol()":"95d89b41","totalSupply()":"18160ddd","transfer(address,uint256)":"a9059cbb","transferFrom(address,address,uint256)":"23b872dd"},"id":20}