{"abi":[{"type":"constructor","inputs":[{"name":"logicContract","type":"address","internalType":"address"},{"name":"_Owner","type":"address","internalType":"address"}],"stateMutability":"nonpayable"},{"type":"fallback","stateMutability":"payable"},{"type":"receive","stateMutability":"payable"},{"type":"function","name":"admin","inputs":[],"outputs":[{"name":"","type":"address","internalType":"address"}],"stateMutability":"view"},{"type":"function","name":"didOptIn","inputs":[],"outputs":[{"name":"","type":"bool","internalType":"bool"}],"stateMutability":"view"},{"type":"function","name":"implementation","inputs":[],"outputs":[{"name":"","type":"address","internalType":"address"}],"stateMutability":"view"},{"type":"function","name":"optInOfUpgrade","inputs":[],"outputs":[],"stateMutability":"nonpayable"},{"type":"function","name":"optOutOfUpgrade","inputs":[],"outputs":[],"stateMutability":"nonpayable"},{"type":"function","name":"owner","inputs":[],"outputs":[{"name":"","type":"address","internalType":"address"}],"stateMutability":"view"},{"type":"function","name":"upgrade","inputs":[{"name":"newImplementation","type":"address","internalType":"address"}],"outputs":[],"stateMutability":"nonpayable"}],"bytecode":{"object":"0x608060405234801561000f575f5ffd5b50604051610a46380380610a468339818101604052810190610031919061014a565b6100408261006560201b60201c565b61004f8161009260201b60201c565b61005e336100bf60201b60201c565b5050610188565b5f7f360894a13ba1a3210667c828492db98dca3e2076cc3735a920a3ca505d382bbc5f1b90508181555050565b5f7fa7b53796fd2d99cb1f5ae019b54f9e024446c3d12b483f733ccc62ed04eb126a5f1b90508181555050565b5f7fb53127684a568b3173ae13b9f8a6016e243e63b6e8ee1178d6a717850b5d61035f1b90508181555050565b5f5ffd5b5f73ffffffffffffffffffffffffffffffffffffffff82169050919050565b5f610119826100f0565b9050919050565b6101298161010f565b8114610133575f5ffd5b50565b5f8151905061014481610120565b92915050565b5f5f604083850312156101605761015f6100ec565b5b5f61016d85828601610136565b925050602061017e85828601610136565b9150509250929050565b6108b1806101955f395ff3fe608060405260043610610073575f3560e01c80636e02c8d61161004d5780636e02c8d6146100f45780637425547b1461011e5780638da5cb5b14610134578063f851a4401461015e57610082565b8063033e40111461008c5780630900f010146100a25780635c60da1b146100ca57610082565b3661008257610080610188565b005b61008a610188565b005b348015610097575f5ffd5b506100a06101a2565b005b3480156100ad575f5ffd5b506100c860048036038101906100c391906105ad565b610222565b005b3480156100d5575f5ffd5b506100de6102ea565b6040516100eb91906105e7565b60405180910390f35b3480156100ff575f5ffd5b506101086102f8565b604051610115919061061a565b60405180910390f35b348015610129575f5ffd5b50610132610306565b005b34801561013f575f5ffd5b50610148610387565b60405161015591906105e7565b60405180910390f35b348015610169575f5ffd5b50610172610395565b60405161017f91906105e7565b60405180910390f35b6101906103a3565b6101a061019b61041a565b610449565b565b6101aa610468565b73ffffffffffffffffffffffffffffffffffffffff163373ffffffffffffffffffffffffffffffffffffffff1614610217576040517f08c379a000000000000000000000000000000000000000000000000000000000815260040161020e906106b3565b60405180910390fd5b6102205f610497565b565b61022a6104c4565b73ffffffffffffffffffffffffffffffffffffffff163373ffffffffffffffffffffffffffffffffffffffff1614610297576040517f08c379a000000000000000000000000000000000000000000000000000000000815260040161028e90610741565b60405180910390fd5b61029f6104f3565b6102de576040517f08c379a00000000000000000000000000000000000000000000000000000000081526004016102d5906107cf565b60405180910390fd5b6102e781610522565b50565b5f6102f361041a565b905090565b5f6103016104f3565b905090565b61030e610468565b73ffffffffffffffffffffffffffffffffffffffff163373ffffffffffffffffffffffffffffffffffffffff161461037b576040517f08c379a0000000000000000000000000000000000000000000000000000000008152600401610372906106b3565b60405180910390fd5b6103856001610497565b565b5f610390610468565b905090565b5f61039e6104c4565b905090565b6103ab6104c4565b73ffffffffffffffffffffffffffffffffffffffff163373ffffffffffffffffffffffffffffffffffffffff1603610418576040517f08c379a000000000000000000000000000000000000000000000000000000000815260040161040f9061085d565b60405180910390fd5b565b5f5f7f360894a13ba1a3210667c828492db98dca3e2076cc3735a920a3ca505d382bbc5f1b9050805491505090565b365f5f375f5f365f845af43d5f5f3e805f8114610464573d5ff35b3d5ffd5b5f5f7fa7b53796fd2d99cb1f5ae019b54f9e024446c3d12b483f733ccc62ed04eb126a5f1b9050805491505090565b5f7f7b191067458f5b5c0c36f2be8ceaf27679e7ea94b6964093ce9e5c7db2aff82a5f1b90508181555050565b5f5f7fb53127684a568b3173ae13b9f8a6016e243e63b6e8ee1178d6a717850b5d61035f1b9050805491505090565b5f5f7f7b191067458f5b5c0c36f2be8ceaf27679e7ea94b6964093ce9e5c7db2aff82a5f1b9050805491505090565b5f7f360894a13ba1a3210667c828492db98dca3e2076cc3735a920a3ca505d382bbc5f1b90508181555050565b5f5ffd5b5f73ffffffffffffffffffffffffffffffffffffffff82169050919050565b5f61057c82610553565b9050919050565b61058c81610572565b8114610596575f5ffd5b50565b5f813590506105a781610583565b92915050565b5f602082840312156105c2576105c161054f565b5b5f6105cf84828501610599565b91505092915050565b6105e181610572565b82525050565b5f6020820190506105fa5f8301846105d8565b92915050565b5f8115159050919050565b61061481610600565b82525050565b5f60208201905061062d5f83018461060b565b92915050565b5f82825260208201905092915050565b7f4f6e6c79206f776e65722063616e2063616c6c20746869732066756e6374696f5f8201527f6e00000000000000000000000000000000000000000000000000000000000000602082015250565b5f61069d602183610633565b91506106a882610643565b604082019050919050565b5f6020820190508181035f8301526106ca81610691565b9050919050565b7f4f6e6c792061646d696e2063616e2063616c6c20746869732066756e6374696f5f8201527f6e00000000000000000000000000000000000000000000000000000000000000602082015250565b5f61072b602183610633565b9150610736826106d1565b604082019050919050565b5f6020820190508181035f8301526107588161071f565b9050919050565b7f4f776e657220646f6573206e6f742077616e742074686520636f6e74726163745f8201527f20746f2062652075706772616465640000000000000000000000000000000000602082015250565b5f6107b9602f83610633565b91506107c48261075f565b604082019050919050565b5f6020820190508181035f8301526107e6816107ad565b9050919050565b7f61646d696e2063616e6e6f742063616c6c207468652066616c6c6261636b20665f8201527f756e6374696f6e00000000000000000000000000000000000000000000000000602082015250565b5f610847602783610633565b9150610852826107ed565b604082019050919050565b5f6020820190508181035f8301526108748161083b565b905091905056fea26469706673582212208ab9ff802c3bb42977d6fa9624bca9c129ade5b143f8fed095d97f7be2fc541164736f6c634300081e0033","linkReferences":{}},"methodIdentifiers":{"admin()":"f851a440","didOptIn()":"6e02c8d6","implementation()":"5c60da1b","optInOfUpgrade()":"7425547b","optOutOfUpgrade()":"033e4011","owner()":"8da5cb5b","upgrade(address)":"0900f010"},"id":21}